{
  "contractName": "ActorRegistry",
  "abi": [
    {
      "inputs": [
        {
          "internalType": "address",
          "name": "_certifiedAuthority",
          "type": "address"
        }
      ],
      "stateMutability": "nonpayable",
      "type": "constructor"
    },
    {
      "anonymous": false,
      "inputs": [
        {
          "indexed": false,
          "internalType": "address",
          "name": "restaurant",
          "type": "address"
        }
      ],
      "name": "RestaurantAdded",
      "type": "event"
    },
    {
      "inputs": [],
      "name": "certifiedAuthority",
      "outputs": [
        {
          "internalType": "contract CertifiedAuthority",
          "name": "",
          "type": "address"
        }
      ],
      "stateMutability": "view",
      "type": "function",
      "constant": true
    },
    {
      "inputs": [
        {
          "internalType": "address",
          "name": "",
          "type": "address"
        }
      ],
      "name": "verifiedSellers",
      "outputs": [
        {
          "internalType": "bool",
          "name": "",
          "type": "bool"
        }
      ],
      "stateMutability": "view",
      "type": "function",
      "constant": true
    },
    {
      "inputs": [
        {
          "internalType": "address",
          "name": "restaurant",
          "type": "address"
        },
        {
          "internalType": "string",
          "name": "piva",
          "type": "string"
        }
      ],
      "name": "addSeller",
      "outputs": [],
      "stateMutability": "nonpayable",
      "type": "function"
    },
    {
      "inputs": [
        {
          "internalType": "address",
          "name": "restaurant",
          "type": "address"
        }
      ],
      "name": "verifySeller",
      "outputs": [
        {
          "internalType": "bool",
          "name": "",
          "type": "bool"
        }
      ],
      "stateMutability": "view",
      "type": "function",
      "constant": true
    }
  ],
  "bytecode": "0x608060405234801561001057600080fd5b506040516107543803806107548339818101604052810190610032919061008d565b806000806101000a81548173ffffffffffffffffffffffffffffffffffffffff021916908373ffffffffffffffffffffffffffffffffffffffff160217905550506100ff565b600081519050610087816100e8565b92915050565b60006020828403121561009f57600080fd5b60006100ad84828501610078565b91505092915050565b60006100c1826100c8565b9050919050565b600073ffffffffffffffffffffffffffffffffffffffff82169050919050565b6100f1816100b6565b81146100fc57600080fd5b50565b6106468061010e6000396000f3fe608060405234801561001057600080fd5b506004361061004c5760003560e01c80631b73e67e146100515780638a44e5861461006d5780639bb927481461009d578063d1760e60146100bb575b600080fd5b61006b6004803603810190610066919061039f565b6100eb565b005b61008760048036038101906100829190610376565b610268565b60405161009491906104d5565b60405180910390f35b6100a5610288565b6040516100b291906104f0565b60405180910390f35b6100d560048036038101906100d09190610376565b6102ac565b6040516100e291906104d5565b60405180910390f35b60008054906101000a900473ffffffffffffffffffffffffffffffffffffffff1673ffffffffffffffffffffffffffffffffffffffff166387969d7583836040518363ffffffff1660e01b815260040161014692919061050b565b60206040518083038186803b15801561015e57600080fd5b505afa158015610172573d6000803e3d6000fd5b505050506040513d601f19601f8201168201806040525081019061019691906103f7565b6101d5576040517f08c379a00000000000000000000000000000000000000000000000000000000081526004016101cc9061052f565b60405180910390fd5b60018060008573ffffffffffffffffffffffffffffffffffffffff1673ffffffffffffffffffffffffffffffffffffffff16815260200190815260200160002060006101000a81548160ff0219169083151502179055507f30fdfb5b96c8f1d53ce2c2df0c23849ad3b9a86a4b0aae4303d182d635593c488360405161025b91906104ba565b60405180910390a1505050565b60016020528060005260406000206000915054906101000a900460ff1681565b60008054906101000a900473ffffffffffffffffffffffffffffffffffffffff1681565b6000600160008373ffffffffffffffffffffffffffffffffffffffff1673ffffffffffffffffffffffffffffffffffffffff16815260200190815260200160002060009054906101000a900460ff169050919050565b600081359050610311816105e2565b92915050565b600081519050610326816105f9565b92915050565b60008083601f84011261033e57600080fd5b8235905067ffffffffffffffff81111561035757600080fd5b60208301915083600182028301111561036f57600080fd5b9250929050565b60006020828403121561038857600080fd5b600061039684828501610302565b91505092915050565b6000806000604084860312156103b457600080fd5b60006103c286828701610302565b935050602084013567ffffffffffffffff8111156103df57600080fd5b6103eb8682870161032c565b92509250509250925092565b60006020828403121561040957600080fd5b600061041784828501610317565b91505092915050565b61042981610560565b82525050565b61043881610572565b82525050565b6104478161059e565b82525050565b6000610459838561054f565b93506104668385846105c2565b61046f836105d1565b840190509392505050565b6000610487600e8361054f565b91507f70697661206e6f742076616c69640000000000000000000000000000000000006000830152602082019050919050565b60006020820190506104cf6000830184610420565b92915050565b60006020820190506104ea600083018461042f565b92915050565b6000602082019050610505600083018461043e565b92915050565b6000602082019050818103600083015261052681848661044d565b90509392505050565b600060208201905081810360008301526105488161047a565b9050919050565b600082825260208201905092915050565b600061056b8261057e565b9050919050565b60008115159050919050565b600073ffffffffffffffffffffffffffffffffffffffff82169050919050565b60006105a9826105b0565b9050919050565b60006105bb8261057e565b9050919050565b82818337600083830152505050565b6000601f19601f8301169050919050565b6105eb81610560565b81146105f657600080fd5b50565b61060281610572565b811461060d57600080fd5b5056fea2646970667358221220d514c8b19c9e8c658f60069fdf36f3a89ab041f2bf97a0d937d035ea639b3e6164736f6c63430008000033",
  "immutableReferences": {},
  "source": "// SPDX-License-Identifier: MIT\r\npragma solidity ^0.8.0;\r\n\r\nimport \"./CertifiedAuthority.sol\";\r\n\r\ncontract ActorRegistry {\r\n    CertifiedAuthority public certifiedAuthority;\r\n    mapping(address => bool) public verifiedSellers;\r\n\r\n    event RestaurantAdded(address restaurant);\r\n\r\n    // Constructor\r\n    constructor(address _certifiedAuthority) {\r\n        certifiedAuthority = CertifiedAuthority(_certifiedAuthority);\r\n    }\r\n\r\n    // Aggiunge un seller se la PIVA  valida\r\n    function addSeller(address restaurant, string calldata piva) public {\r\n        require(certifiedAuthority.isPivaValid(piva), \"piva not valid\");\r\n        verifiedSellers[restaurant] = true;\r\n        emit RestaurantAdded(restaurant);\r\n        \r\n    }\r\n\r\n    // Controlla se un ristorante  verificato\r\n    function verifySeller(address restaurant) public view returns (bool) {\r\n        return verifiedSellers[restaurant];\r\n    }\r\n}\r\n",
  "sourcePath": "C:\\Users\\Utente\\Desktop\\Universit\\Blockchain\\Progetto\\ReviewChain\\Performance Tests\\contracts\\ActorRegistry.sol",
  "compiler": {
    "name": "solc",
    "version": "0.8.0+commit.c7dfd78e.Emscripten.clang"
  },
  "schemaVersion": "3.4.16",
  "updatedAt": "2025-06-12T09:50:53.407Z",
  "networkType": "ethereum",
  "devdoc": {
    "kind": "dev",
    "methods": {},
    "version": 1
  },
  "userdoc": {
    "kind": "user",
    "methods": {},
    "version": 1
  }
}