{
  "contractName": "CertifiedAuthority",
  "abi": [
    {
      "inputs": [],
      "stateMutability": "nonpayable",
      "type": "constructor"
    },
    {
      "inputs": [
        {
          "internalType": "string",
          "name": "",
          "type": "string"
        }
      ],
      "name": "validPivas",
      "outputs": [
        {
          "internalType": "string",
          "name": "",
          "type": "string"
        }
      ],
      "stateMutability": "view",
      "type": "function",
      "constant": true
    },
    {
      "inputs": [
        {
          "internalType": "string",
          "name": "piva",
          "type": "string"
        }
      ],
      "name": "isPivaValid",
      "outputs": [
        {
          "internalType": "bool",
          "name": "",
          "type": "bool"
        }
      ],
      "stateMutability": "view",
      "type": "function",
      "constant": true
    }
  ],
  "bytecode": "0x608060405234801561001057600080fd5b506040518060400160405280601581526020017f4348455a20444152494f20442741474f5354494e4f00000000000000000000008152506000604051610055906102ab565b90815260200160405180910390209080519060200190610076929190610148565b506040518060400160405280601481526020017f5045505045524f4e492050495a4120504c415a4100000000000000000000000081525060006040516100bb906102d5565b908152602001604051809103902090805190602001906100dc929190610148565b506040518060400160405280600881526020017f502e20475245434f0000000000000000000000000000000000000000000000008152506000604051610121906102c0565b90815260200160405180910390209080519060200190610142929190610148565b50610356565b828054610154906102f5565b90600052602060002090601f01602090048101928261017657600085556101bd565b82601f1061018f57805160ff19168380011785556101bd565b828001600101855582156101bd579182015b828111156101bc5782518255916020019190600101906101a1565b5b5090506101ca91906101ce565b5090565b5b808211156101e75760008160009055506001016101cf565b5090565b60006101f8600d836102ea565b91507f49543132333435363738393031000000000000000000000000000000000000006000830152600d82019050919050565b6000610238600d836102ea565b91507f49543034323733383630363131000000000000000000000000000000000000006000830152600d82019050919050565b6000610278600d836102ea565b91507f49543130373632393130303135000000000000000000000000000000000000006000830152600d82019050919050565b60006102b6826101eb565b9150819050919050565b60006102cb8261022b565b9150819050919050565b60006102e08261026b565b9150819050919050565b600081905092915050565b6000600282049050600182168061030d57607f821691505b6020821081141561032157610320610327565b5b50919050565b7f4e487b7100000000000000000000000000000000000000000000000000000000600052602260045260246000fd5b6105b5806103656000396000f3fe608060405234801561001057600080fd5b50600436106100365760003560e01c806387969d751461003b578063dde31b881461006b575b600080fd5b610055600480360381019061005091906102bf565b61009b565b60405161006291906103cb565b60405180910390f35b61008560048036038101906100809190610304565b610157565b60405161009291906103e6565b60405180910390f35b600080600084846040516100b09291906103b2565b908152602001604051809103902080546100c9906104de565b80601f01602080910402602001604051908101604052809291908181526020018280546100f5906104de565b80156101425780601f1061011757610100808354040283529160200191610142565b820191906000526020600020905b81548152906001019060200180831161012557829003601f168201915b50505050509050600081511191505092915050565b600081805160208101820180518482526020830160208501208183528095505050505050600091509050805461018c906104de565b80601f01602080910402602001604051908101604052809291908181526020018280546101b8906104de565b80156102055780601f106101da57610100808354040283529160200191610205565b820191906000526020600020905b8154815290600101906020018083116101e857829003601f168201915b505050505081565b600061022061021b84610439565b610408565b90508281526020810184848401111561023857600080fd5b61024384828561049c565b509392505050565b60008083601f84011261025d57600080fd5b8235905067ffffffffffffffff81111561027657600080fd5b60208301915083600182028301111561028e57600080fd5b9250929050565b600082601f8301126102a657600080fd5b81356102b684826020860161020d565b91505092915050565b600080602083850312156102d257600080fd5b600083013567ffffffffffffffff8111156102ec57600080fd5b6102f88582860161024b565b92509250509250929050565b60006020828403121561031657600080fd5b600082013567ffffffffffffffff81111561033057600080fd5b61033c84828501610295565b91505092915050565b61034e81610490565b82525050565b60006103608385610485565b935061036d83858461049c565b82840190509392505050565b600061038482610469565b61038e8185610474565b935061039e8185602086016104ab565b6103a78161056e565b840191505092915050565b60006103bf828486610354565b91508190509392505050565b60006020820190506103e06000830184610345565b92915050565b600060208201905081810360008301526104008184610379565b905092915050565b6000604051905081810181811067ffffffffffffffff8211171561042f5761042e61053f565b5b8060405250919050565b600067ffffffffffffffff8211156104545761045361053f565b5b601f19601f8301169050602081019050919050565b600081519050919050565b600082825260208201905092915050565b600081905092915050565b60008115159050919050565b82818337600083830152505050565b60005b838110156104c95780820151818401526020810190506104ae565b838111156104d8576000848401525b50505050565b600060028204905060018216806104f657607f821691505b6020821081141561050a57610509610510565b5b50919050565b7f4e487b7100000000000000000000000000000000000000000000000000000000600052602260045260246000fd5b7f4e487b7100000000000000000000000000000000000000000000000000000000600052604160045260246000fd5b6000601f19601f830116905091905056fea2646970667358221220ff4a271dc8161b4bd9cc462fff9d8256136879fb1ea97691cf1e2f868c4dc2a564736f6c63430008000033",
  "immutableReferences": {},
  "source": "// SPDX-License-Identifier: MIT\r\npragma solidity ^0.8.0;\r\n\r\n// Questo contratto deve rappresentare un finto oracolo (MockOracle)\r\ncontract CertifiedAuthority {\r\n    mapping(string => string) public validPivas;\r\n\r\n    // Constructor\r\n    constructor() {\r\n        // Inizializzazione di alcune PIVA valide\r\n        validPivas[\"IT12345678901\"] = \"CHEZ DARIO D'AGOSTINO\";\r\n        validPivas[\"IT10762910015\"] = \"PEPPERONI PIZA PLAZA\";\r\n        validPivas[\"IT04273860611\"] = \"P. GRECO\";\r\n    }\r\n    //c' il calldata perch  pi efficiente con l'external\r\n    function isPivaValid(string calldata piva) external view returns (bool){\r\n        string memory value = validPivas[piva];\r\n        return bytes(value).length > 0;\r\n    }\r\n}\r\n",
  "sourcePath": "C:\\Users\\Utente\\Desktop\\Universit\\Blockchain\\Progetto\\ReviewChain\\Performance Tests\\contracts\\CertifiedAuthority.sol",
  "compiler": {
    "name": "solc",
    "version": "0.8.0+commit.c7dfd78e.Emscripten.clang"
  },
  "schemaVersion": "3.4.16",
  "updatedAt": "2025-06-12T09:50:53.425Z",
  "networkType": "ethereum",
  "devdoc": {
    "kind": "dev",
    "methods": {},
    "version": 1
  },
  "userdoc": {
    "kind": "user",
    "methods": {},
    "version": 1
  }
}