{
  "contractName": "ReviewManager",
  "abi": [
    {
      "inputs": [
        {
          "internalType": "address",
          "name": "_supportReviewManager",
          "type": "address"
        }
      ],
      "stateMutability": "nonpayable",
      "type": "constructor"
    },
    {
      "inputs": [
        {
          "internalType": "address",
          "name": "",
          "type": "address"
        },
        {
          "internalType": "uint256",
          "name": "",
          "type": "uint256"
        }
      ],
      "name": "hasVoted",
      "outputs": [
        {
          "internalType": "bool",
          "name": "",
          "type": "bool"
        }
      ],
      "stateMutability": "view",
      "type": "function",
      "constant": true
    },
    {
      "inputs": [
        {
          "internalType": "address",
          "name": "",
          "type": "address"
        },
        {
          "internalType": "uint256",
          "name": "",
          "type": "uint256"
        }
      ],
      "name": "restaurant_reviews",
      "outputs": [
        {
          "internalType": "uint256",
          "name": "",
          "type": "uint256"
        }
      ],
      "stateMutability": "view",
      "type": "function",
      "constant": true
    },
    {
      "inputs": [],
      "name": "reviewCounter",
      "outputs": [
        {
          "internalType": "uint256",
          "name": "",
          "type": "uint256"
        }
      ],
      "stateMutability": "view",
      "type": "function",
      "constant": true
    },
    {
      "inputs": [
        {
          "internalType": "uint256",
          "name": "",
          "type": "uint256"
        }
      ],
      "name": "reviews",
      "outputs": [
        {
          "internalType": "address",
          "name": "Uaddress",
          "type": "address"
        },
        {
          "internalType": "address",
          "name": "Raddress",
          "type": "address"
        },
        {
          "internalType": "string",
          "name": "content",
          "type": "string"
        },
        {
          "internalType": "uint256",
          "name": "numLikes",
          "type": "uint256"
        },
        {
          "internalType": "uint256",
          "name": "timestamp",
          "type": "uint256"
        }
      ],
      "stateMutability": "view",
      "type": "function",
      "constant": true
    },
    {
      "inputs": [],
      "name": "supportReviewManager",
      "outputs": [
        {
          "internalType": "contract SupportReviewManager",
          "name": "",
          "type": "address"
        }
      ],
      "stateMutability": "view",
      "type": "function",
      "constant": true
    },
    {
      "inputs": [
        {
          "internalType": "address",
          "name": "Raddress",
          "type": "address"
        },
        {
          "internalType": "string",
          "name": "content",
          "type": "string"
        }
      ],
      "name": "addReview",
      "outputs": [
        {
          "internalType": "uint256",
          "name": "",
          "type": "uint256"
        }
      ],
      "stateMutability": "nonpayable",
      "type": "function"
    },
    {
      "inputs": [
        {
          "internalType": "uint256",
          "name": "reviewID",
          "type": "uint256"
        }
      ],
      "name": "likeReview",
      "outputs": [],
      "stateMutability": "nonpayable",
      "type": "function"
    },
    {
      "inputs": [
        {
          "internalType": "uint256",
          "name": "reviewID",
          "type": "uint256"
        },
        {
          "internalType": "string",
          "name": "newcontent",
          "type": "string"
        }
      ],
      "name": "modifyReview",
      "outputs": [],
      "stateMutability": "nonpayable",
      "type": "function"
    },
    {
      "inputs": [
        {
          "internalType": "uint256",
          "name": "reviewID",
          "type": "uint256"
        }
      ],
      "name": "deleteReview",
      "outputs": [],
      "stateMutability": "nonpayable",
      "type": "function"
    },
    {
      "inputs": [
        {
          "internalType": "address",
          "name": "Raddress",
          "type": "address"
        }
      ],
      "name": "getRestaurantReviewsByAddress",
      "outputs": [
        {
          "internalType": "uint256[]",
          "name": "",
          "type": "uint256[]"
        }
      ],
      "stateMutability": "view",
      "type": "function",
      "constant": true
    },
    {
      "inputs": [
        {
          "internalType": "uint256",
          "name": "reviewID",
          "type": "uint256"
        }
      ],
      "name": "getNumberofLikes",
      "outputs": [
        {
          "internalType": "uint256",
          "name": "",
          "type": "uint256"
        }
      ],
      "stateMutability": "view",
      "type": "function",
      "constant": true
    }
  ],
  "bytecode": "0x60806040523480156200001157600080fd5b50604051620019633803806200196383398181016040528101906200003791906200009e565b80600460006101000a81548173ffffffffffffffffffffffffffffffffffffffff021916908373ffffffffffffffffffffffffffffffffffffffff16021790555060006003819055505062000118565b6000815190506200009881620000fe565b92915050565b600060208284031215620000b157600080fd5b6000620000c18482850162000087565b91505092915050565b6000620000d782620000de565b9050919050565b600073ffffffffffffffffffffffffffffffffffffffff82169050919050565b6200010981620000ca565b81146200011557600080fd5b50565b61183b80620001286000396000f3fe608060405234801561001057600080fd5b50600436106100a85760003560e01c8063720c675011610071578063720c675014610177578063bae32bf9146101a7578063d71e4890146101c3578063e168b3a8146101df578063e83ddcea146101fd578063eb72a86114610231576100a8565b8062fe2ab4146100ad578063401d0e0f146100dd578063425458251461010d578063522b3e261461013d57806354ab032d1461015b575b600080fd5b6100c760048036038101906100c2919061100c565b610261565b6040516100d4919061146d565b60405180910390f35b6100f760048036038101906100f29190611048565b610292565b604051610104919061146d565b60405180910390f35b6101276004803603810190610122919061100c565b6102b1565b60405161013491906113b7565b60405180910390f35b6101456102e0565b60405161015291906113d2565b60405180910390f35b61017560048036038101906101709190611071565b610306565b005b610191600480360381019061018c9190610fb8565b6104f2565b60405161019e919061146d565b60405180910390f35b6101c160048036038101906101bc9190611048565b6107cd565b005b6101dd60048036038101906101d89190611048565b610a1f565b005b6101e7610bd7565b6040516101f4919061146d565b60405180910390f35b61021760048036038101906102129190611048565b610bdd565b6040516102289594939291906112e8565b60405180910390f35b61024b60048036038101906102469190610f8f565b610cdb565b6040516102589190611395565b60405180910390f35b6001602052816000526040600020818154811061027d57600080fd5b90600052602060002001600091509150505481565b6000806000838152602001908152602001600020600301549050919050565b60026020528160005260406000206020528060005260406000206000915091509054906101000a900460ff1681565b600460009054906101000a900473ffffffffffffffffffffffffffffffffffffffff1681565b813373ffffffffffffffffffffffffffffffffffffffff1660008083815260200190815260200160002060000160009054906101000a900473ffffffffffffffffffffffffffffffffffffffff1673ffffffffffffffffffffffffffffffffffffffff16146103aa576040517f08c379a00000000000000000000000000000000000000000000000000000000081526004016103a1906113ed565b60405180910390fd5b6103b383610d72565b62015180600080858152602001908152602001600020600401546103d791906115ba565b421115610419576040517f08c379a00000000000000000000000000000000000000000000000000000000081526004016104109061144d565b60405180910390fd5b816000808581526020019081526020016000206002019080519060200190610442929190610e1a565b50600080600085815260200190815260200160002060030181905550600460009054906101000a900473ffffffffffffffffffffffffffffffffffffffff1673ffffffffffffffffffffffffffffffffffffffff16639f2a154384846040518363ffffffff1660e01b81526004016104bb9291906114d4565b600060405180830381600087803b1580156104d557600080fd5b505af11580156104e9573d6000803e3d6000fd5b50505050505050565b6000600460009054906101000a900473ffffffffffffffffffffffffffffffffffffffff1673ffffffffffffffffffffffffffffffffffffffff166352c28fab33856040518363ffffffff1660e01b81526004016105519291906112bf565b600060405180830381600087803b15801561056b57600080fd5b505af115801561057f573d6000803e3d6000fd5b5050505060036000815480929190610596906116f0565b91905055506040518060a001604052803373ffffffffffffffffffffffffffffffffffffffff1681526020018473ffffffffffffffffffffffffffffffffffffffff1681526020018381526020016000815260200142815250600080600354815260200190815260200160002060008201518160000160006101000a81548173ffffffffffffffffffffffffffffffffffffffff021916908373ffffffffffffffffffffffffffffffffffffffff16021790555060208201518160010160006101000a81548173ffffffffffffffffffffffffffffffffffffffff021916908373ffffffffffffffffffffffffffffffffffffffff16021790555060408201518160020190805190602001906106ad929190610e1a565b506060820151816003015560808201518160040155905050600160008473ffffffffffffffffffffffffffffffffffffffff1673ffffffffffffffffffffffffffffffffffffffff1681526020019081526020016000206003549080600181540180825580915050600190039060005260206000200160009091909190915055600460009054906101000a900473ffffffffffffffffffffffffffffffffffffffff1673ffffffffffffffffffffffffffffffffffffffff1663b5972bcd6003543386866040518563ffffffff1660e01b81526004016107909493929190611488565b600060405180830381600087803b1580156107aa57600080fd5b505af11580156107be573d6000803e3d6000fd5b50505050600354905092915050565b6107d681610d72565b600260003373ffffffffffffffffffffffffffffffffffffffff1673ffffffffffffffffffffffffffffffffffffffff168152602001908152602001600020600082815260200190815260200160002060009054906101000a900460ff1615610874576040517f08c379a000000000000000000000000000000000000000000000000000000000815260040161086b9061142d565b60405180910390fd5b600460009054906101000a900473ffffffffffffffffffffffffffffffffffffffff1673ffffffffffffffffffffffffffffffffffffffff16630b02c7403360008085815260200190815260200160002060010160009054906101000a900473ffffffffffffffffffffffffffffffffffffffff16846000808781526020019081526020016000206003015460008088815260200190815260200160002060000160009054906101000a900473ffffffffffffffffffffffffffffffffffffffff166040518663ffffffff1660e01b8152600401610956959493929190611342565b600060405180830381600087803b15801561097057600080fd5b505af1158015610984573d6000803e3d6000fd5b5050505060008082815260200190815260200160002060030160008154809291906109ae906116f0565b91905055506001600260003373ffffffffffffffffffffffffffffffffffffffff1673ffffffffffffffffffffffffffffffffffffffff168152602001908152602001600020600083815260200190815260200160002060006101000a81548160ff02191690831515021790555050565b803373ffffffffffffffffffffffffffffffffffffffff1660008083815260200190815260200160002060000160009054906101000a900473ffffffffffffffffffffffffffffffffffffffff1673ffffffffffffffffffffffffffffffffffffffff1614610ac3576040517f08c379a0000000000000000000000000000000000000000000000000000000008152600401610aba906113ed565b60405180910390fd5b600080838152602001908152602001600020600080820160006101000a81549073ffffffffffffffffffffffffffffffffffffffff02191690556001820160006101000a81549073ffffffffffffffffffffffffffffffffffffffff0219169055600282016000610b349190610ea0565b600382016000905560048201600090555050600460009054906101000a900473ffffffffffffffffffffffffffffffffffffffff1673ffffffffffffffffffffffffffffffffffffffff1663f8749a58836040518263ffffffff1660e01b8152600401610ba1919061146d565b600060405180830381600087803b158015610bbb57600080fd5b505af1158015610bcf573d6000803e3d6000fd5b505050505050565b60035481565b60006020528060005260406000206000915090508060000160009054906101000a900473ffffffffffffffffffffffffffffffffffffffff16908060010160009054906101000a900473ffffffffffffffffffffffffffffffffffffffff1690806002018054610c4c906116be565b80601f0160208091040260200160405190810160405280929190818152602001828054610c78906116be565b8015610cc55780601f10610c9a57610100808354040283529160200191610cc5565b820191906000526020600020905b815481529060010190602001808311610ca857829003601f168201915b5050505050908060030154908060040154905085565b6060600160008373ffffffffffffffffffffffffffffffffffffffff1673ffffffffffffffffffffffffffffffffffffffff168152602001908152602001600020805480602002602001604051908101604052809291908181526020018280548015610d6657602002820191906000526020600020905b815481526020019060010190808311610d52575b50505050509050919050565b600073ffffffffffffffffffffffffffffffffffffffff1660008083815260200190815260200160002060000160009054906101000a900473ffffffffffffffffffffffffffffffffffffffff1673ffffffffffffffffffffffffffffffffffffffff161415610e17576040517f08c379a0000000000000000000000000000000000000000000000000000000008152600401610e0e9061140d565b60405180910390fd5b50565b828054610e26906116be565b90600052602060002090601f016020900481019282610e485760008555610e8f565b82601f10610e6157805160ff1916838001178555610e8f565b82800160010185558215610e8f579182015b82811115610e8e578251825591602001919060010190610e73565b5b509050610e9c9190610ee0565b5090565b508054610eac906116be565b6000825580601f10610ebe5750610edd565b601f016020900490600052602060002090810190610edc9190610ee0565b5b50565b5b80821115610ef9576000816000905550600101610ee1565b5090565b6000610f10610f0b84611535565b611504565b905082815260208101848484011115610f2857600080fd5b610f3384828561167c565b509392505050565b600081359050610f4a816117d7565b92915050565b600082601f830112610f6157600080fd5b8135610f71848260208601610efd565b91505092915050565b600081359050610f89816117ee565b92915050565b600060208284031215610fa157600080fd5b6000610faf84828501610f3b565b91505092915050565b60008060408385031215610fcb57600080fd5b6000610fd985828601610f3b565b925050602083013567ffffffffffffffff811115610ff657600080fd5b61100285828601610f50565b9150509250929050565b6000806040838503121561101f57600080fd5b600061102d85828601610f3b565b925050602061103e85828601610f7a565b9150509250929050565b60006020828403121561105a57600080fd5b600061106884828501610f7a565b91505092915050565b6000806040838503121561108457600080fd5b600061109285828601610f7a565b925050602083013567ffffffffffffffff8111156110af57600080fd5b6110bb85828601610f50565b9150509250929050565b60006110d183836112a1565b60208301905092915050565b6110e681611610565b82525050565b60006110f782611575565b6111018185611598565b935061110c83611565565b8060005b8381101561113d57815161112488826110c5565b975061112f8361158b565b925050600181019050611110565b5085935050505092915050565b61115381611622565b82525050565b61116281611658565b82525050565b600061117382611580565b61117d81856115a9565b935061118d81856020860161168b565b611196816117c6565b840191505092915050565b60006111ae6004836115a9565b91507f45353030000000000000000000000000000000000000000000000000000000006000830152602082019050919050565b60006111ee6004836115a9565b91507f45353031000000000000000000000000000000000000000000000000000000006000830152602082019050919050565b600061122e6004836115a9565b91507f45353032000000000000000000000000000000000000000000000000000000006000830152602082019050919050565b600061126e6004836115a9565b91507f45353033000000000000000000000000000000000000000000000000000000006000830152602082019050919050565b6112aa8161164e565b82525050565b6112b98161164e565b82525050565b60006040820190506112d460008301856110dd565b6112e160208301846110dd565b9392505050565b600060a0820190506112fd60008301886110dd565b61130a60208301876110dd565b818103604083015261131c8186611168565b905061132b60608301856112b0565b61133860808301846112b0565b9695505050505050565b600060a08201905061135760008301886110dd565b61136460208301876110dd565b61137160408301866112b0565b61137e60608301856112b0565b61138b60808301846110dd565b9695505050505050565b600060208201905081810360008301526113af81846110ec565b905092915050565b60006020820190506113cc600083018461114a565b92915050565b60006020820190506113e76000830184611159565b92915050565b60006020820190508181036000830152611406816111a1565b9050919050565b60006020820190508181036000830152611426816111e1565b9050919050565b6000602082019050818103600083015261144681611221565b9050919050565b6000602082019050818103600083015261146681611261565b9050919050565b600060208201905061148260008301846112b0565b92915050565b600060808201905061149d60008301876112b0565b6114aa60208301866110dd565b6114b760408301856110dd565b81810360608301526114c98184611168565b905095945050505050565b60006040820190506114e960008301856112b0565b81810360208301526114fb8184611168565b90509392505050565b6000604051905081810181811067ffffffffffffffff8211171561152b5761152a611797565b5b8060405250919050565b600067ffffffffffffffff8211156115505761154f611797565b5b601f19601f8301169050602081019050919050565b6000819050602082019050919050565b600081519050919050565b600081519050919050565b6000602082019050919050565b600082825260208201905092915050565b600082825260208201905092915050565b60006115c58261164e565b91506115d08361164e565b9250827fffffffffffffffffffffffffffffffffffffffffffffffffffffffffffffffff0382111561160557611604611739565b5b828201905092915050565b600061161b8261162e565b9050919050565b60008115159050919050565b600073ffffffffffffffffffffffffffffffffffffffff82169050919050565b6000819050919050565b60006116638261166a565b9050919050565b60006116758261162e565b9050919050565b82818337600083830152505050565b60005b838110156116a957808201518184015260208101905061168e565b838111156116b8576000848401525b50505050565b600060028204905060018216806116d657607f821691505b602082108114156116ea576116e9611768565b5b50919050565b60006116fb8261164e565b91507fffffffffffffffffffffffffffffffffffffffffffffffffffffffffffffffff82141561172e5761172d611739565b5b600182019050919050565b7f4e487b7100000000000000000000000000000000000000000000000000000000600052601160045260246000fd5b7f4e487b7100000000000000000000000000000000000000000000000000000000600052602260045260246000fd5b7f4e487b7100000000000000000000000000000000000000000000000000000000600052604160045260246000fd5b6000601f19601f8301169050919050565b6117e081611610565b81146117eb57600080fd5b50565b6117f78161164e565b811461180257600080fd5b5056fea26469706673582212206b3f3a0c5b8a26f41d33b580a335edc720743a4acb5d223935a7257b50f6e63c64736f6c63430008000033",
  "immutableReferences": {},
  "source": "// SPDX-License-Identifier: MIT\r\npragma solidity ^0.8.0;\r\n\r\nimport \"./SupportReviewManager.sol\";\r\n\r\ncontract ReviewManager {\r\n    struct Review {\r\n        address Uaddress;\r\n        address Raddress;\r\n        string content;\r\n        uint256 numLikes;\r\n        uint256 timestamp;\r\n    }\r\n\r\n    mapping(uint256 => Review) public reviews;\r\n    mapping(address => uint256[]) public restaurant_reviews;\r\n    //mapping(address => mapping(address => uint256[])) public customer_for_restaurant_reviews;\r\n    mapping(address => mapping(uint256 => bool)) public hasVoted;\r\n\r\n    uint256 public reviewCounter;\r\n\r\n    SupportReviewManager public supportReviewManager;\r\n\r\n    modifier onlyAuthor(uint256 reviewID) {\r\n        require(reviews[reviewID].Uaddress == msg.sender, \"E500\");\r\n        _;\r\n    }\r\n\r\n    //funzione per controllare se una recensione esiste\r\n    function checkIfExist(uint256 reviewID) private view {\r\n        require(reviews[reviewID].Uaddress != address(0), \"E501\");\r\n    }\r\n\r\n    constructor(address _supportReviewManager) {\r\n        supportReviewManager = SupportReviewManager(_supportReviewManager);\r\n        reviewCounter = 0;\r\n    }\r\n\r\n    function addReview(address Raddress, string memory content) public returns (uint256) {\r\n        supportReviewManager.add(msg.sender, Raddress);\r\n        reviewCounter++;\r\n        reviews[reviewCounter] = Review(msg.sender, Raddress, content, 0, block.timestamp);\r\n        restaurant_reviews[Raddress].push(reviewCounter);\r\n        //customer_for_restaurant_reviews[msg.sender][Raddress].push(reviewCounter);\r\n\r\n        supportReviewManager.addEvent(reviewCounter, msg.sender, Raddress, content);\r\n        return reviewCounter;\r\n    }\r\n\r\n    function likeReview(uint256 reviewID) public {\r\n        checkIfExist(reviewID);\r\n        require(!hasVoted[msg.sender][reviewID], \"E502\");\r\n        supportReviewManager.like(msg.sender, reviews[reviewID].Raddress, reviewID, reviews[reviewID].numLikes, reviews[reviewID].Uaddress);\r\n\r\n        reviews[reviewID].numLikes++;\r\n        hasVoted[msg.sender][reviewID] = true;\r\n        \r\n    }\r\n\r\n    function modifyReview(uint256 reviewID, string memory newcontent) public onlyAuthor(reviewID) {\r\n        checkIfExist(reviewID);\r\n        require(block.timestamp <= reviews[reviewID].timestamp + 1 days, \"E503\");\r\n\r\n        reviews[reviewID].content = newcontent;\r\n        reviews[reviewID].numLikes = 0;\r\n\r\n        supportReviewManager.modifyEvent(reviewID, newcontent);\r\n    }\r\n\r\n    function deleteReview(uint256 reviewID) public onlyAuthor(reviewID) {\r\n        delete reviews[reviewID];\r\n        supportReviewManager.deleteEvent(reviewID);\r\n    }\r\n\r\n    function getRestaurantReviewsByAddress(address Raddress) external view returns (uint256[] memory) {\r\n        return restaurant_reviews[Raddress];\r\n    }\r\n\r\n    function getNumberofLikes(uint256 reviewID) public view returns (uint256) {\r\n        return reviews[reviewID].numLikes;\r\n    }\r\n\r\n}",
  "sourcePath": "C:\\Users\\Utente\\Desktop\\Universit\\Blockchain\\Progetto\\ReviewChain\\Performance Tests\\contracts\\ReviewManager.sol",
  "compiler": {
    "name": "solc",
    "version": "0.8.0+commit.c7dfd78e.Emscripten.clang"
  },
  "schemaVersion": "3.4.16",
  "updatedAt": "2025-06-12T20:23:22.550Z",
  "networkType": "ethereum",
  "devdoc": {
    "kind": "dev",
    "methods": {},
    "version": 1
  },
  "userdoc": {
    "kind": "user",
    "methods": {},
    "version": 1
  }
}