{
  "contractName": "SupportReviewManager",
  "abi": [
    {
      "inputs": [
        {
          "internalType": "address",
          "name": "_actorRegistry",
          "type": "address"
        },
        {
          "internalType": "address",
          "name": "_voucherManager",
          "type": "address"
        },
        {
          "internalType": "address",
          "name": "_tokenManager",
          "type": "address"
        }
      ],
      "stateMutability": "nonpayable",
      "type": "constructor"
    },
    {
      "anonymous": false,
      "inputs": [
        {
          "indexed": true,
          "internalType": "uint256",
          "name": "reviewID",
          "type": "uint256"
        },
        {
          "indexed": false,
          "internalType": "address",
          "name": "Uaddress",
          "type": "address"
        },
        {
          "indexed": false,
          "internalType": "address",
          "name": "Raddress",
          "type": "address"
        },
        {
          "indexed": false,
          "internalType": "string",
          "name": "content",
          "type": "string"
        }
      ],
      "name": "ReviewAdded",
      "type": "event"
    },
    {
      "anonymous": false,
      "inputs": [
        {
          "indexed": true,
          "internalType": "uint256",
          "name": "reviewID",
          "type": "uint256"
        }
      ],
      "name": "ReviewDeleted",
      "type": "event"
    },
    {
      "anonymous": false,
      "inputs": [
        {
          "indexed": true,
          "internalType": "uint256",
          "name": "reviewID",
          "type": "uint256"
        },
        {
          "indexed": false,
          "internalType": "address",
          "name": "Uaddress",
          "type": "address"
        }
      ],
      "name": "ReviewLiked",
      "type": "event"
    },
    {
      "anonymous": false,
      "inputs": [
        {
          "indexed": true,
          "internalType": "uint256",
          "name": "reviewID",
          "type": "uint256"
        },
        {
          "indexed": false,
          "internalType": "string",
          "name": "newContent",
          "type": "string"
        }
      ],
      "name": "ReviewModified",
      "type": "event"
    },
    {
      "inputs": [],
      "name": "actorRegistry",
      "outputs": [
        {
          "internalType": "contract ActorRegistry",
          "name": "",
          "type": "address"
        }
      ],
      "stateMutability": "view",
      "type": "function",
      "constant": true
    },
    {
      "inputs": [],
      "name": "tokenManager",
      "outputs": [
        {
          "internalType": "contract TokenManager",
          "name": "",
          "type": "address"
        }
      ],
      "stateMutability": "view",
      "type": "function",
      "constant": true
    },
    {
      "inputs": [],
      "name": "voucherManager",
      "outputs": [
        {
          "internalType": "contract VoucherManager",
          "name": "",
          "type": "address"
        }
      ],
      "stateMutability": "view",
      "type": "function",
      "constant": true
    },
    {
      "inputs": [
        {
          "internalType": "address",
          "name": "_reviewManager",
          "type": "address"
        }
      ],
      "name": "setAuthorizedAddress",
      "outputs": [],
      "stateMutability": "nonpayable",
      "type": "function"
    },
    {
      "inputs": [
        {
          "internalType": "address",
          "name": "Uaddress",
          "type": "address"
        },
        {
          "internalType": "address",
          "name": "Raddress",
          "type": "address"
        }
      ],
      "name": "add",
      "outputs": [],
      "stateMutability": "nonpayable",
      "type": "function"
    },
    {
      "inputs": [
        {
          "internalType": "uint256",
          "name": "reviewID",
          "type": "uint256"
        },
        {
          "internalType": "address",
          "name": "Uaddress",
          "type": "address"
        },
        {
          "internalType": "address",
          "name": "Raddress",
          "type": "address"
        },
        {
          "internalType": "string",
          "name": "content",
          "type": "string"
        }
      ],
      "name": "addEvent",
      "outputs": [],
      "stateMutability": "nonpayable",
      "type": "function"
    },
    {
      "inputs": [
        {
          "internalType": "address",
          "name": "Uaddress",
          "type": "address"
        },
        {
          "internalType": "address",
          "name": "Raddress",
          "type": "address"
        },
        {
          "internalType": "uint256",
          "name": "reviewID",
          "type": "uint256"
        },
        {
          "internalType": "uint256",
          "name": "numLikes",
          "type": "uint256"
        },
        {
          "internalType": "address",
          "name": "owner",
          "type": "address"
        }
      ],
      "name": "like",
      "outputs": [],
      "stateMutability": "nonpayable",
      "type": "function"
    },
    {
      "inputs": [
        {
          "internalType": "uint256",
          "name": "reviewID",
          "type": "uint256"
        },
        {
          "internalType": "string",
          "name": "content",
          "type": "string"
        }
      ],
      "name": "modifyEvent",
      "outputs": [],
      "stateMutability": "nonpayable",
      "type": "function"
    },
    {
      "inputs": [
        {
          "internalType": "uint256",
          "name": "reviewID",
          "type": "uint256"
        }
      ],
      "name": "deleteEvent",
      "outputs": [],
      "stateMutability": "nonpayable",
      "type": "function"
    }
  ],
  "bytecode": "0x60806040523480156200001157600080fd5b506040516200153f3803806200153f83398181016040528101906200003791906200015a565b82600260006101000a81548173ffffffffffffffffffffffffffffffffffffffff021916908373ffffffffffffffffffffffffffffffffffffffff16021790555081600360006101000a81548173ffffffffffffffffffffffffffffffffffffffff021916908373ffffffffffffffffffffffffffffffffffffffff16021790555080600460006101000a81548173ffffffffffffffffffffffffffffffffffffffff021916908373ffffffffffffffffffffffffffffffffffffffff160217905550336000806101000a81548173ffffffffffffffffffffffffffffffffffffffff021916908373ffffffffffffffffffffffffffffffffffffffff160217905550505050620001fe565b6000815190506200015481620001e4565b92915050565b6000806000606084860312156200017057600080fd5b6000620001808682870162000143565b9350506020620001938682870162000143565b9250506040620001a68682870162000143565b9150509250925092565b6000620001bd82620001c4565b9050919050565b600073ffffffffffffffffffffffffffffffffffffffff82169050919050565b620001ef81620001b0565b8114620001fb57600080fd5b50565b611331806200020e6000396000f3fe608060405234801561001057600080fd5b50600436106100935760003560e01c80639f2a1543116100665780639f2a15431461010a578063b5972bcd14610126578063ca19e41214610142578063eae7b93514610160578063f8749a581461017e57610093565b80630b02c740146100985780632a709b14146100b457806352c28fab146100d257806369f29c51146100ee575b600080fd5b6100b260048036038101906100ad9190610ae9565b61019a565b005b6100bc610363565b6040516100c99190610fa1565b60405180910390f35b6100ec60048036038101906100e79190610aad565b610389565b005b61010860048036038101906101039190610a84565b610596565b005b610124600480360381019061011f9190610c56565b610668565b005b610140600480360381019061013b9190610bdb565b610734565b005b61014a610806565b6040516101579190610fbc565b60405180910390f35b61016861082c565b6040516101759190610f86565b60405180910390f35b61019860048036038101906101939190610b89565b610852565b005b600160009054906101000a900473ffffffffffffffffffffffffffffffffffffffff1673ffffffffffffffffffffffffffffffffffffffff163373ffffffffffffffffffffffffffffffffffffffff161461022a576040517f08c379a000000000000000000000000000000000000000000000000000000000815260040161022190611059565b60405180910390fd5b6000600460009054906101000a900473ffffffffffffffffffffffffffffffffffffffff1673ffffffffffffffffffffffffffffffffffffffff16635d4aa0df87876040518363ffffffff1660e01b8152600401610289929190610ed5565b60206040518083038186803b1580156102a157600080fd5b505afa1580156102b5573d6000803e3d6000fd5b505050506040513d601f19601f820116820180604052508101906102d99190610bb2565b11610319576040517f08c379a000000000000000000000000000000000000000000000000000000000815260040161031090611039565b60405180910390fd5b827f2a575392b31f8ad5c0ca374f9e137bc796e7cd3427cbbc70eaa7e18d21c00058866040516103499190610eba565b60405180910390a261035c818584610912565b5050505050565b600460009054906101000a900473ffffffffffffffffffffffffffffffffffffffff1681565b600160009054906101000a900473ffffffffffffffffffffffffffffffffffffffff1673ffffffffffffffffffffffffffffffffffffffff163373ffffffffffffffffffffffffffffffffffffffff1614610419576040517f08c379a000000000000000000000000000000000000000000000000000000000815260040161041090611059565b60405180910390fd5b600260009054906101000a900473ffffffffffffffffffffffffffffffffffffffff1673ffffffffffffffffffffffffffffffffffffffff1663d1760e60826040518263ffffffff1660e01b81526004016104749190610eba565b60206040518083038186803b15801561048c57600080fd5b505afa1580156104a0573d6000803e3d6000fd5b505050506040513d601f19601f820116820180604052508101906104c49190610b60565b610503576040517f08c379a00000000000000000000000000000000000000000000000000000000081526004016104fa90611019565b60405180910390fd5b600460009054906101000a900473ffffffffffffffffffffffffffffffffffffffff1673ffffffffffffffffffffffffffffffffffffffff1663e45f39da83836040518363ffffffff1660e01b8152600401610560929190610ed5565b600060405180830381600087803b15801561057a57600080fd5b505af115801561058e573d6000803e3d6000fd5b505050505050565b60008054906101000a900473ffffffffffffffffffffffffffffffffffffffff1673ffffffffffffffffffffffffffffffffffffffff163373ffffffffffffffffffffffffffffffffffffffff1614610624576040517f08c379a000000000000000000000000000000000000000000000000000000000815260040161061b90610ff9565b60405180910390fd5b80600160006101000a81548173ffffffffffffffffffffffffffffffffffffffff021916908373ffffffffffffffffffffffffffffffffffffffff16021790555050565b600160009054906101000a900473ffffffffffffffffffffffffffffffffffffffff1673ffffffffffffffffffffffffffffffffffffffff163373ffffffffffffffffffffffffffffffffffffffff16146106f8576040517f08c379a00000000000000000000000000000000000000000000000000000000081526004016106ef90611059565b60405180910390fd5b817f448fc77ae8eb4a99d7c316f4e6c7a1267bdfdc14994ff88033937af287ca8d41826040516107289190610fd7565b60405180910390a25050565b600160009054906101000a900473ffffffffffffffffffffffffffffffffffffffff1673ffffffffffffffffffffffffffffffffffffffff163373ffffffffffffffffffffffffffffffffffffffff16146107c4576040517f08c379a00000000000000000000000000000000000000000000000000000000081526004016107bb90611059565b60405180910390fd5b837fa46ca2e54ca2e3dc0e0f99a8688532096c9f7864436860c6fbe86adc32350e578484846040516107f893929190610f48565b60405180910390a250505050565b600360009054906101000a900473ffffffffffffffffffffffffffffffffffffffff1681565b600260009054906101000a900473ffffffffffffffffffffffffffffffffffffffff1681565b600160009054906101000a900473ffffffffffffffffffffffffffffffffffffffff1673ffffffffffffffffffffffffffffffffffffffff163373ffffffffffffffffffffffffffffffffffffffff16146108e2576040517f08c379a00000000000000000000000000000000000000000000000000000000081526004016108d990611059565b60405180910390fd5b807fe5b8d5ce0f468eff18b88328bfdf877d45b5aa6359e0df3ac054656b7acf9b1560405160405180910390a250565b808061091d906111fe565b91505060038114156109c357600360009054906101000a900473ffffffffffffffffffffffffffffffffffffffff1673ffffffffffffffffffffffffffffffffffffffff1663dd4fd6378484671bc16d674ec800006040518463ffffffff1660e01b815260040161099093929190610efe565b600060405180830381600087803b1580156109aa57600080fd5b505af11580156109be573d6000803e3d6000fd5b505050505b505050565b60006109db6109d6846110aa565b611079565b9050828152602081018484840111156109f357600080fd5b6109fe8482856111bc565b509392505050565b600081359050610a15816112b6565b92915050565b600081519050610a2a816112cd565b92915050565b600082601f830112610a4157600080fd5b8135610a518482602086016109c8565b91505092915050565b600081359050610a69816112e4565b92915050565b600081519050610a7e816112e4565b92915050565b600060208284031215610a9657600080fd5b6000610aa484828501610a06565b91505092915050565b60008060408385031215610ac057600080fd5b6000610ace85828601610a06565b9250506020610adf85828601610a06565b9150509250929050565b600080600080600060a08688031215610b0157600080fd5b6000610b0f88828901610a06565b9550506020610b2088828901610a06565b9450506040610b3188828901610a5a565b9350506060610b4288828901610a5a565b9250506080610b5388828901610a06565b9150509295509295909350565b600060208284031215610b7257600080fd5b6000610b8084828501610a1b565b91505092915050565b600060208284031215610b9b57600080fd5b6000610ba984828501610a5a565b91505092915050565b600060208284031215610bc457600080fd5b6000610bd284828501610a6f565b91505092915050565b60008060008060808587031215610bf157600080fd5b6000610bff87828801610a5a565b9450506020610c1087828801610a06565b9350506040610c2187828801610a06565b925050606085013567ffffffffffffffff811115610c3e57600080fd5b610c4a87828801610a30565b91505092959194509250565b60008060408385031215610c6957600080fd5b6000610c7785828601610a5a565b925050602083013567ffffffffffffffff811115610c9457600080fd5b610ca085828601610a30565b9150509250929050565b610cb3816110f6565b82525050565b610cc28161113e565b82525050565b610cd181611162565b82525050565b610ce081611186565b82525050565b610cef816111aa565b82525050565b6000610d00826110da565b610d0a81856110e5565b9350610d1a8185602086016111cb565b610d23816112a5565b840191505092915050565b6000610d3b6016836110e5565b91507f796f7520617265206e6f7420617574686f72697a6564000000000000000000006000830152602082019050919050565b6000610d7b6033836110e5565b91507f5468652072657374617572616e74206973206e6f742070617274206f6620746860008301527f6520616666696c69617465642073797374656d000000000000000000000000006020830152604082019050919050565b6000610de16008836110e5565b91507f646973636f756e740000000000000000000000000000000000000000000000006000830152602082019050919050565b6000610e21602d836110e5565b91507f596f75206e656564206174206c65617374206f6e6520746f6b656e20746f206c60008301527f65617665206120726576696577000000000000000000000000000000000000006020830152604082019050919050565b6000610e876020836110e5565b91507f6f6e6c79205265766965774d616e6167657220697320617574686f72697a65646000830152602082019050919050565b6000602082019050610ecf6000830184610caa565b92915050565b6000604082019050610eea6000830185610caa565b610ef76020830184610caa565b9392505050565b6000608082019050610f136000830186610caa565b610f206020830185610caa565b610f2d6040830184610ce6565b8181036060830152610f3e81610dd4565b9050949350505050565b6000606082019050610f5d6000830186610caa565b610f6a6020830185610caa565b8181036040830152610f7c8184610cf5565b9050949350505050565b6000602082019050610f9b6000830184610cb9565b92915050565b6000602082019050610fb66000830184610cc8565b92915050565b6000602082019050610fd16000830184610cd7565b92915050565b60006020820190508181036000830152610ff18184610cf5565b905092915050565b6000602082019050818103600083015261101281610d2e565b9050919050565b6000602082019050818103600083015261103281610d6e565b9050919050565b6000602082019050818103600083015261105281610e14565b9050919050565b6000602082019050818103600083015261107281610e7a565b9050919050565b6000604051905081810181811067ffffffffffffffff821117156110a05761109f611276565b5b8060405250919050565b600067ffffffffffffffff8211156110c5576110c4611276565b5b601f19601f8301169050602081019050919050565b600081519050919050565b600082825260208201905092915050565b600061110182611114565b9050919050565b60008115159050919050565b600073ffffffffffffffffffffffffffffffffffffffff82169050919050565b6000819050919050565b600061114982611150565b9050919050565b600061115b82611114565b9050919050565b600061116d82611174565b9050919050565b600061117f82611114565b9050919050565b600061119182611198565b9050919050565b60006111a382611114565b9050919050565b60006111b582611134565b9050919050565b82818337600083830152505050565b60005b838110156111e95780820151818401526020810190506111ce565b838111156111f8576000848401525b50505050565b600061120982611134565b91507fffffffffffffffffffffffffffffffffffffffffffffffffffffffffffffffff82141561123c5761123b611247565b5b600182019050919050565b7f4e487b7100000000000000000000000000000000000000000000000000000000600052601160045260246000fd5b7f4e487b7100000000000000000000000000000000000000000000000000000000600052604160045260246000fd5b6000601f19601f8301169050919050565b6112bf816110f6565b81146112ca57600080fd5b50565b6112d681611108565b81146112e157600080fd5b50565b6112ed81611134565b81146112f857600080fd5b5056fea26469706673582212200ff599f0b43be8f1b6e5e9ca4f308a0dad93b7191d32b317ccb1aa80278371fb64736f6c63430008000033",
  "immutableReferences": {},
  "source": "// SPDX-License-Identifier: MIT\r\npragma solidity ^0.8.0;\r\n\r\nimport \"./VoucherManager.sol\";\r\nimport \"./TokenManager.sol\";\r\nimport \"./ActorRegistry.sol\";\r\n\r\ncontract SupportReviewManager {\r\n    address private owner;\r\n    address private reviewManager;\r\n    ActorRegistry public actorRegistry;\r\n    VoucherManager public voucherManager;\r\n    TokenManager public tokenManager;\r\n\r\n    event ReviewAdded(uint256 indexed reviewID, address Uaddress, address Raddress, string content);\r\n    event ReviewModified(uint256 indexed reviewID, string newContent);\r\n    event ReviewDeleted(uint256 indexed reviewID);\r\n    event ReviewLiked(uint256 indexed reviewID, address Uaddress);\r\n\r\n    constructor(address _actorRegistry, address _voucherManager, address _tokenManager) {\r\n        actorRegistry = ActorRegistry(_actorRegistry);\r\n        voucherManager = VoucherManager(_voucherManager);\r\n        tokenManager = TokenManager(_tokenManager);\r\n        owner = msg.sender;\r\n    }\r\n\r\n    function setAuthorizedAddress(address _reviewManager) external {\r\n        require(msg.sender == owner, \"you are not authorized\");\r\n        reviewManager = _reviewManager;\r\n    }\r\n\r\n    modifier onlyReviewManager {\r\n        require(msg.sender == reviewManager, \"only ReviewManager is authorized\");\r\n        _;\r\n    }\r\n\r\n    function add(address Uaddress, address Raddress) external onlyReviewManager{\r\n        require(actorRegistry.verifySeller(Raddress), \"The restaurant is not part of the affiliated system\");\r\n        tokenManager.decrementTokenCounter(Uaddress, Raddress);\r\n    }\r\n\r\n    function addEvent(uint256 reviewID, address Uaddress, address Raddress, string memory content) external onlyReviewManager {\r\n        emit ReviewAdded(reviewID, Uaddress, Raddress, content);\r\n    }\r\n\r\n    function like(address Uaddress, address Raddress, uint256 reviewID, uint256 numLikes, address owner) external onlyReviewManager{\r\n        require(tokenManager.getTokenCountUserPerRestaurant(Uaddress, Raddress) > 0, \"You need at least one token to leave a review\");\r\n        emit ReviewLiked(reviewID, Uaddress);\r\n        emitV(owner, Raddress, numLikes);\r\n    }\r\n\r\n    function emitV(address Uaddress, address Raddress, uint256 numLikes) private{\r\n        numLikes++;\r\n        if(numLikes == 3)\r\n            voucherManager.emitVoucher(Uaddress, Raddress, 2000000000000000000, \"discount\");\r\n    }\r\n\r\n    function modifyEvent(uint256 reviewID, string memory content) external onlyReviewManager{\r\n        emit ReviewModified(reviewID, content);\r\n    }\r\n\r\n    function deleteEvent(uint256 reviewID) external onlyReviewManager {\r\n        emit ReviewDeleted(reviewID);\r\n    }\r\n\r\n}",
  "sourcePath": "C:\\Users\\Utente\\Desktop\\Universit\\Blockchain\\Progetto\\ReviewChain\\Performance Tests\\contracts\\SupportReviewManager.sol",
  "compiler": {
    "name": "solc",
    "version": "0.8.0+commit.c7dfd78e.Emscripten.clang"
  },
  "schemaVersion": "3.4.16",
  "updatedAt": "2025-06-13T15:22:07.982Z",
  "networkType": "ethereum",
  "devdoc": {
    "kind": "dev",
    "methods": {},
    "version": 1
  },
  "userdoc": {
    "kind": "user",
    "methods": {},
    "version": 1
  }
}