{
  "contractName": "TokenManager",
  "abi": [
    {
      "inputs": [
        {
          "internalType": "address",
          "name": "_actorRegistry",
          "type": "address"
        },
        {
          "internalType": "address",
          "name": "_voucherManager",
          "type": "address"
        }
      ],
      "stateMutability": "nonpayable",
      "type": "constructor"
    },
    {
      "anonymous": false,
      "inputs": [
        {
          "indexed": true,
          "internalType": "address",
          "name": "from",
          "type": "address"
        },
        {
          "indexed": true,
          "internalType": "address",
          "name": "to",
          "type": "address"
        },
        {
          "indexed": false,
          "internalType": "uint256",
          "name": "amount",
          "type": "uint256"
        },
        {
          "indexed": false,
          "internalType": "uint256",
          "name": "voucherID",
          "type": "uint256"
        }
      ],
      "name": "Payment",
      "type": "event"
    },
    {
      "anonymous": false,
      "inputs": [
        {
          "indexed": true,
          "internalType": "address",
          "name": "user",
          "type": "address"
        },
        {
          "indexed": true,
          "internalType": "address",
          "name": "restaurant",
          "type": "address"
        },
        {
          "indexed": false,
          "internalType": "uint256",
          "name": "newCount",
          "type": "uint256"
        }
      ],
      "name": "TokenDecremented",
      "type": "event"
    },
    {
      "anonymous": false,
      "inputs": [
        {
          "indexed": true,
          "internalType": "address",
          "name": "user",
          "type": "address"
        },
        {
          "indexed": true,
          "internalType": "address",
          "name": "restaurant",
          "type": "address"
        },
        {
          "indexed": false,
          "internalType": "uint256",
          "name": "newCount",
          "type": "uint256"
        }
      ],
      "name": "TokenIncremented",
      "type": "event"
    },
    {
      "anonymous": false,
      "inputs": [
        {
          "indexed": true,
          "internalType": "uint256",
          "name": "voucherID",
          "type": "uint256"
        },
        {
          "indexed": true,
          "internalType": "address",
          "name": "user",
          "type": "address"
        },
        {
          "indexed": true,
          "internalType": "address",
          "name": "restaurant",
          "type": "address"
        }
      ],
      "name": "VoucherUsed",
      "type": "event"
    },
    {
      "inputs": [],
      "name": "actorRegistry",
      "outputs": [
        {
          "internalType": "contract ActorRegistry",
          "name": "",
          "type": "address"
        }
      ],
      "stateMutability": "view",
      "type": "function",
      "constant": true
    },
    {
      "inputs": [],
      "name": "decimals",
      "outputs": [
        {
          "internalType": "uint8",
          "name": "",
          "type": "uint8"
        }
      ],
      "stateMutability": "view",
      "type": "function",
      "constant": true
    },
    {
      "inputs": [],
      "name": "name",
      "outputs": [
        {
          "internalType": "string",
          "name": "",
          "type": "string"
        }
      ],
      "stateMutability": "view",
      "type": "function",
      "constant": true
    },
    {
      "inputs": [],
      "name": "symbol",
      "outputs": [
        {
          "internalType": "string",
          "name": "",
          "type": "string"
        }
      ],
      "stateMutability": "view",
      "type": "function",
      "constant": true
    },
    {
      "inputs": [],
      "name": "voucherManager",
      "outputs": [
        {
          "internalType": "contract VoucherManager",
          "name": "",
          "type": "address"
        }
      ],
      "stateMutability": "view",
      "type": "function",
      "constant": true
    },
    {
      "inputs": [
        {
          "internalType": "address",
          "name": "_supportReviewManager",
          "type": "address"
        }
      ],
      "name": "setAuthorizedAddress",
      "outputs": [],
      "stateMutability": "nonpayable",
      "type": "function"
    },
    {
      "inputs": [
        {
          "internalType": "address",
          "name": "Uaddress",
          "type": "address"
        },
        {
          "internalType": "address",
          "name": "Raddress",
          "type": "address"
        }
      ],
      "name": "decrementTokenCounter",
      "outputs": [],
      "stateMutability": "nonpayable",
      "type": "function"
    },
    {
      "inputs": [
        {
          "internalType": "address",
          "name": "Uaddress",
          "type": "address"
        },
        {
          "internalType": "address",
          "name": "Raddress",
          "type": "address"
        }
      ],
      "name": "getTokenCountUserPerRestaurant",
      "outputs": [
        {
          "internalType": "uint256",
          "name": "",
          "type": "uint256"
        }
      ],
      "stateMutability": "view",
      "type": "function",
      "constant": true
    },
    {
      "inputs": [
        {
          "internalType": "address",
          "name": "receiver",
          "type": "address"
        },
        {
          "internalType": "uint256",
          "name": "amount",
          "type": "uint256"
        },
        {
          "internalType": "uint256",
          "name": "voucherID",
          "type": "uint256"
        }
      ],
      "name": "pay",
      "outputs": [],
      "stateMutability": "payable",
      "type": "function",
      "payable": true
    }
  ],
  "bytecode": "0x60806040526040518060400160405280600481526020017f42495445000000000000000000000000000000000000000000000000000000008152506000908051906020019062000051929190620001ba565b506040518060400160405280600381526020017f4254450000000000000000000000000000000000000000000000000000000000815250600190805190602001906200009f929190620001ba565b506012600260006101000a81548160ff021916908360ff160217905550348015620000c957600080fd5b5060405162001800380380620018008339818101604052810190620000ef919062000281565b81600260016101000a81548173ffffffffffffffffffffffffffffffffffffffff021916908373ffffffffffffffffffffffffffffffffffffffff16021790555080600360006101000a81548173ffffffffffffffffffffffffffffffffffffffff021916908373ffffffffffffffffffffffffffffffffffffffff16021790555033600560006101000a81548173ffffffffffffffffffffffffffffffffffffffff021916908373ffffffffffffffffffffffffffffffffffffffff160217905550505062000375565b828054620001c890620002f6565b90600052602060002090601f016020900481019282620001ec576000855562000238565b82601f106200020757805160ff191683800117855562000238565b8280016001018555821562000238579182015b82811115620002375782518255916020019190600101906200021a565b5b5090506200024791906200024b565b5090565b5b80821115620002665760008160009055506001016200024c565b5090565b6000815190506200027b816200035b565b92915050565b600080604083850312156200029557600080fd5b6000620002a5858286016200026a565b9250506020620002b8858286016200026a565b9150509250929050565b6000620002cf82620002d6565b9050919050565b600073ffffffffffffffffffffffffffffffffffffffff82169050919050565b600060028204905060018216806200030f57607f821691505b602082108114156200032657620003256200032c565b5b50919050565b7f4e487b7100000000000000000000000000000000000000000000000000000000600052602260045260246000fd5b6200036681620002c2565b81146200037257600080fd5b50565b61147b80620003856000396000f3fe6080604052600436106100865760003560e01c806369f29c511161005957806369f29c511461013a57806395d89b4114610163578063ca19e4121461018e578063e45f39da146101b9578063eae7b935146101e257610086565b806306fdde031461008b578063313ce567146100b65780635d4aa0df146100e15780635f0653461461011e575b600080fd5b34801561009757600080fd5b506100a061020d565b6040516100ad9190611066565b60405180910390f35b3480156100c257600080fd5b506100cb61029b565b6040516100d891906111b1565b60405180910390f35b3480156100ed57600080fd5b5061010860048036038101906101039190610d74565b6102ae565b6040516101159190611128565b60405180910390f35b61013860048036038101906101339190610db0565b610335565b005b34801561014657600080fd5b50610161600480360381019061015c9190610d4b565b61077f565b005b34801561016f57600080fd5b50610178610853565b6040516101859190611066565b60405180910390f35b34801561019a57600080fd5b506101a36108e1565b6040516101b0919061104b565b60405180910390f35b3480156101c557600080fd5b506101e060048036038101906101db9190610d74565b610907565b005b3480156101ee57600080fd5b506101f7610b5a565b6040516102049190611030565b60405180910390f35b6000805461021a90611316565b80601f016020809104026020016040519081016040528092919081815260200182805461024690611316565b80156102935780601f1061026857610100808354040283529160200191610293565b820191906000526020600020905b81548152906001019060200180831161027657829003601f168201915b505050505081565b600260009054906101000a900460ff1681565b6000600660008473ffffffffffffffffffffffffffffffffffffffff1673ffffffffffffffffffffffffffffffffffffffff16815260200190815260200160002060008373ffffffffffffffffffffffffffffffffffffffff1673ffffffffffffffffffffffffffffffffffffffff16815260200190815260200160002054905092915050565b338073ffffffffffffffffffffffffffffffffffffffff163373ffffffffffffffffffffffffffffffffffffffff16146103a4576040517f08c379a000000000000000000000000000000000000000000000000000000000815260040161039b906110a8565b60405180910390fd5b600260019054906101000a900473ffffffffffffffffffffffffffffffffffffffff1673ffffffffffffffffffffffffffffffffffffffff1663d1760e60856040518263ffffffff1660e01b81526004016103ff9190611015565b60206040518083038186803b15801561041757600080fd5b505afa15801561042b573d6000803e3d6000fd5b505050506040513d601f19601f8201168201806040525081019061044f9190610dff565b61048e576040517f08c379a0000000000000000000000000000000000000000000000000000000008152600401610485906110c8565b60405180910390fd5b6000600360009054906101000a900473ffffffffffffffffffffffffffffffffffffffff1673ffffffffffffffffffffffffffffffffffffffff166324b33874843388886040518563ffffffff1660e01b81526004016104f19493929190611143565b60206040518083038186803b15801561050957600080fd5b505afa15801561051d573d6000803e3d6000fd5b505050506040513d601f19601f820116820180604052508101906105419190610e28565b905080341015610586576040517f08c379a000000000000000000000000000000000000000000000000000000000815260040161057d90611088565b60405180910390fd5b8473ffffffffffffffffffffffffffffffffffffffff166108fc829081150290604051600060405180830381858888f193505050501580156105cc573d6000803e3d6000fd5b503373ffffffffffffffffffffffffffffffffffffffff166108fc82346105f391906111e8565b9081150290604051600060405180830381858888f1935050505015801561061e573d6000803e3d6000fd5b506106293386610b80565b600360009054906101000a900473ffffffffffffffffffffffffffffffffffffffff1673ffffffffffffffffffffffffffffffffffffffff1663f41b3998846040518263ffffffff1660e01b81526004016106849190611128565b600060405180830381600087803b15801561069e57600080fd5b505af11580156106b2573d6000803e3d6000fd5b505050508473ffffffffffffffffffffffffffffffffffffffff163373ffffffffffffffffffffffffffffffffffffffff16847f83f346f1159dc5c89051523b058f56ac50b13ae0ab17a29b9b62b9fa553bceab60405160405180910390a48473ffffffffffffffffffffffffffffffffffffffff163373ffffffffffffffffffffffffffffffffffffffff167f10258bfd896826cf69e885380049b1d1be0424a813d5117744373ec9f51bc86c8386604051610770929190611188565b60405180910390a35050505050565b600560009054906101000a900473ffffffffffffffffffffffffffffffffffffffff1673ffffffffffffffffffffffffffffffffffffffff163373ffffffffffffffffffffffffffffffffffffffff161461080f576040517f08c379a000000000000000000000000000000000000000000000000000000000815260040161080690611108565b60405180910390fd5b80600460006101000a81548173ffffffffffffffffffffffffffffffffffffffff021916908373ffffffffffffffffffffffffffffffffffffffff16021790555050565b6001805461086090611316565b80601f016020809104026020016040519081016040528092919081815260200182805461088c90611316565b80156108d95780601f106108ae576101008083540402835291602001916108d9565b820191906000526020600020905b8154815290600101906020018083116108bc57829003601f168201915b505050505081565b600360009054906101000a900473ffffffffffffffffffffffffffffffffffffffff1681565b600460009054906101000a900473ffffffffffffffffffffffffffffffffffffffff1673ffffffffffffffffffffffffffffffffffffffff163373ffffffffffffffffffffffffffffffffffffffff1614610997576040517f08c379a000000000000000000000000000000000000000000000000000000000815260040161098e90611108565b60405180910390fd5b60006109a383836102ae565b116109e3576040517f08c379a00000000000000000000000000000000000000000000000000000000081526004016109da906110e8565b60405180910390fd5b600660008373ffffffffffffffffffffffffffffffffffffffff1673ffffffffffffffffffffffffffffffffffffffff16815260200190815260200160002060008273ffffffffffffffffffffffffffffffffffffffff1673ffffffffffffffffffffffffffffffffffffffff1681526020019081526020016000206000815480929190610a70906112ec565b91905055508073ffffffffffffffffffffffffffffffffffffffff168273ffffffffffffffffffffffffffffffffffffffff167f38ee6cb0be817f40d9483d824c7856d9a2e907a9e820757f94b14cab531ff683600660008673ffffffffffffffffffffffffffffffffffffffff1673ffffffffffffffffffffffffffffffffffffffff16815260200190815260200160002060008573ffffffffffffffffffffffffffffffffffffffff1673ffffffffffffffffffffffffffffffffffffffff16815260200190815260200160002054604051610b4e9190611128565b60405180910390a35050565b600260019054906101000a900473ffffffffffffffffffffffffffffffffffffffff1681565b600660008373ffffffffffffffffffffffffffffffffffffffff1673ffffffffffffffffffffffffffffffffffffffff16815260200190815260200160002060008273ffffffffffffffffffffffffffffffffffffffff1673ffffffffffffffffffffffffffffffffffffffff1681526020019081526020016000206000815480929190610c0d90611348565b91905055508073ffffffffffffffffffffffffffffffffffffffff168273ffffffffffffffffffffffffffffffffffffffff167ff480287de807b5444899c68ee5bda12ad1e2397fef2670d325525b56fb82f899600660008673ffffffffffffffffffffffffffffffffffffffff1673ffffffffffffffffffffffffffffffffffffffff16815260200190815260200160002060008573ffffffffffffffffffffffffffffffffffffffff1673ffffffffffffffffffffffffffffffffffffffff16815260200190815260200160002054604051610ceb9190611128565b60405180910390a35050565b600081359050610d0681611400565b92915050565b600081519050610d1b81611417565b92915050565b600081359050610d308161142e565b92915050565b600081519050610d458161142e565b92915050565b600060208284031215610d5d57600080fd5b6000610d6b84828501610cf7565b91505092915050565b60008060408385031215610d8757600080fd5b6000610d9585828601610cf7565b9250506020610da685828601610cf7565b9150509250929050565b600080600060608486031215610dc557600080fd5b6000610dd386828701610cf7565b9350506020610de486828701610d21565b9250506040610df586828701610d21565b9150509250925092565b600060208284031215610e1157600080fd5b6000610e1f84828501610d0c565b91505092915050565b600060208284031215610e3a57600080fd5b6000610e4884828501610d36565b91505092915050565b610e5a8161121c565b82525050565b610e6981611271565b82525050565b610e7881611295565b82525050565b6000610e89826111cc565b610e9381856111d7565b9350610ea38185602086016112b9565b610eac816113ef565b840191505092915050565b6000610ec46004836111d7565b91507f45343034000000000000000000000000000000000000000000000000000000006000830152602082019050919050565b6000610f046004836111d7565b91507f45343030000000000000000000000000000000000000000000000000000000006000830152602082019050919050565b6000610f446004836111d7565b91507f45343033000000000000000000000000000000000000000000000000000000006000830152602082019050919050565b6000610f846004836111d7565b91507f45343032000000000000000000000000000000000000000000000000000000006000830152602082019050919050565b6000610fc46004836111d7565b91507f45343031000000000000000000000000000000000000000000000000000000006000830152602082019050919050565b6110008161125a565b82525050565b61100f81611264565b82525050565b600060208201905061102a6000830184610e51565b92915050565b60006020820190506110456000830184610e60565b92915050565b60006020820190506110606000830184610e6f565b92915050565b600060208201905081810360008301526110808184610e7e565b905092915050565b600060208201905081810360008301526110a181610eb7565b9050919050565b600060208201905081810360008301526110c181610ef7565b9050919050565b600060208201905081810360008301526110e181610f37565b9050919050565b6000602082019050818103600083015261110181610f77565b9050919050565b6000602082019050818103600083015261112181610fb7565b9050919050565b600060208201905061113d6000830184610ff7565b92915050565b60006080820190506111586000830187610ff7565b6111656020830186610e51565b6111726040830185610e51565b61117f6060830184610ff7565b95945050505050565b600060408201905061119d6000830185610ff7565b6111aa6020830184610ff7565b9392505050565b60006020820190506111c66000830184611006565b92915050565b600081519050919050565b600082825260208201905092915050565b60006111f38261125a565b91506111fe8361125a565b92508282101561121157611210611391565b5b828203905092915050565b60006112278261123a565b9050919050565b60008115159050919050565b600073ffffffffffffffffffffffffffffffffffffffff82169050919050565b6000819050919050565b600060ff82169050919050565b600061127c82611283565b9050919050565b600061128e8261123a565b9050919050565b60006112a0826112a7565b9050919050565b60006112b28261123a565b9050919050565b60005b838110156112d75780820151818401526020810190506112bc565b838111156112e6576000848401525b50505050565b60006112f78261125a565b9150600082141561130b5761130a611391565b5b600182039050919050565b6000600282049050600182168061132e57607f821691505b60208210811415611342576113416113c0565b5b50919050565b60006113538261125a565b91507fffffffffffffffffffffffffffffffffffffffffffffffffffffffffffffffff82141561138657611385611391565b5b600182019050919050565b7f4e487b7100000000000000000000000000000000000000000000000000000000600052601160045260246000fd5b7f4e487b7100000000000000000000000000000000000000000000000000000000600052602260045260246000fd5b6000601f19601f8301169050919050565b6114098161121c565b811461141457600080fd5b50565b6114208161122e565b811461142b57600080fd5b50565b6114378161125a565b811461144257600080fd5b5056fea264697066735822122057086e1cb74aa7064c28725b8d122b7ffbbc2744bdca3e505e0a864814afee8564736f6c63430008000033",
  "immutableReferences": {},
  "source": "// SPDX-License-Identifier: MIT\r\npragma solidity ^0.8.0;\r\n\r\nimport \"./ActorRegistry.sol\";\r\nimport \"./VoucherManager.sol\";\r\n\r\ncontract TokenManager {\r\n    string public name = \"BITE\";\r\n    string public symbol = \"BTE\";\r\n    uint8 public decimals = 18;\r\n\r\n    ActorRegistry public actorRegistry;\r\n    VoucherManager public voucherManager;\r\n    address private supportReviewManager;\r\n    address private owner;\r\n\r\n    mapping(address => mapping(address => uint256)) private tokens;\r\n\r\n    modifier onlySender(address sender) {\r\n        require(msg.sender == sender, \"E400\");\r\n        _;\r\n    }\r\n\r\n    event Payment(address indexed from, address indexed to, uint256 amount, uint256 voucherID);\r\n    event TokenIncremented(address indexed user, address indexed restaurant, uint256 newCount);\r\n    event TokenDecremented(address indexed user, address indexed restaurant, uint256 newCount);\r\n    event VoucherUsed(uint256 indexed voucherID, address indexed user, address indexed restaurant);\r\n\r\n    constructor(address _actorRegistry, address _voucherManager) {\r\n        actorRegistry = ActorRegistry(_actorRegistry);\r\n        voucherManager = VoucherManager(_voucherManager);\r\n        owner = msg.sender;\r\n    }\r\n\r\n    function setAuthorizedAddress(address _supportReviewManager) external {\r\n        require(msg.sender == owner, \"E401\");\r\n        supportReviewManager = _supportReviewManager;\r\n    }\r\n\r\n    function incrementTokenCounter(address Uaddress, address Raddress) private {\r\n        tokens[Uaddress][Raddress]++;\r\n        emit TokenIncremented(Uaddress, Raddress, tokens[Uaddress][Raddress]);\r\n    }\r\n\r\n    function decrementTokenCounter(address Uaddress, address Raddress) external {\r\n        require(msg.sender == supportReviewManager, \"E401\");\r\n        require(getTokenCountUserPerRestaurant(Uaddress, Raddress) > 0, \"E402\");\r\n        tokens[Uaddress][Raddress]--;\r\n        emit TokenDecremented(Uaddress, Raddress, tokens[Uaddress][Raddress]);\r\n    }\r\n\r\n    function getTokenCountUserPerRestaurant(address Uaddress, address Raddress) public view returns (uint256) {\r\n        return tokens[Uaddress][Raddress];\r\n    }\r\n\r\n    function pay(address receiver, uint256 amount, uint256 voucherID) external payable onlySender(msg.sender) {\r\n        require(actorRegistry.verifySeller(receiver), \"E403\");\r\n        uint256 amountToPay = voucherManager.applyVoucher(voucherID, msg.sender, receiver, amount);\r\n        require(msg.value >= amountToPay, \"E404\");   \r\n        payable(receiver).transfer(amountToPay); \r\n        payable(msg.sender).transfer(msg.value - amountToPay);   \r\n        incrementTokenCounter(msg.sender, receiver);\r\n        voucherManager.invalidateVoucher(voucherID);\r\n        emit VoucherUsed(voucherID, msg.sender, receiver);\r\n        emit Payment(msg.sender, receiver, amountToPay, voucherID);\r\n    }\r\n}",
  "sourcePath": "C:\\Users\\Utente\\Desktop\\Universit\\Blockchain\\Progetto\\ReviewChain\\Performance Tests\\contracts\\TokenManager.sol",
  "compiler": {
    "name": "solc",
    "version": "0.8.0+commit.c7dfd78e.Emscripten.clang"
  },
  "schemaVersion": "3.4.16",
  "updatedAt": "2025-06-12T09:50:53.412Z",
  "networkType": "ethereum",
  "devdoc": {
    "kind": "dev",
    "methods": {},
    "version": 1
  },
  "userdoc": {
    "kind": "user",
    "methods": {},
    "version": 1
  }
}