{
  "contractName": "VoucherManager",
  "abi": [
    {
      "inputs": [
        {
          "internalType": "address",
          "name": "_actorRegistry",
          "type": "address"
        }
      ],
      "stateMutability": "nonpayable",
      "type": "constructor"
    },
    {
      "anonymous": false,
      "inputs": [
        {
          "indexed": true,
          "internalType": "uint256",
          "name": "id",
          "type": "uint256"
        },
        {
          "indexed": true,
          "internalType": "address",
          "name": "customer",
          "type": "address"
        },
        {
          "indexed": true,
          "internalType": "address",
          "name": "restaurant",
          "type": "address"
        },
        {
          "indexed": false,
          "internalType": "uint256",
          "name": "discount",
          "type": "uint256"
        },
        {
          "indexed": false,
          "internalType": "bool",
          "name": "available",
          "type": "bool"
        },
        {
          "indexed": false,
          "internalType": "string",
          "name": "metadataURI",
          "type": "string"
        }
      ],
      "name": "VoucherEmitted",
      "type": "event"
    },
    {
      "inputs": [
        {
          "internalType": "uint256",
          "name": "",
          "type": "uint256"
        }
      ],
      "name": "vouchers",
      "outputs": [
        {
          "internalType": "uint256",
          "name": "id",
          "type": "uint256"
        },
        {
          "internalType": "address",
          "name": "owner",
          "type": "address"
        },
        {
          "internalType": "address",
          "name": "restaurant",
          "type": "address"
        },
        {
          "internalType": "uint256",
          "name": "discount",
          "type": "uint256"
        },
        {
          "internalType": "bool",
          "name": "available",
          "type": "bool"
        },
        {
          "internalType": "string",
          "name": "metadataURI",
          "type": "string"
        }
      ],
      "stateMutability": "view",
      "type": "function",
      "constant": true
    },
    {
      "inputs": [
        {
          "internalType": "address",
          "name": "_tokenManager",
          "type": "address"
        },
        {
          "internalType": "address",
          "name": "_supportReviewManager",
          "type": "address"
        }
      ],
      "name": "setAuthorizedAddress",
      "outputs": [],
      "stateMutability": "nonpayable",
      "type": "function"
    },
    {
      "inputs": [
        {
          "internalType": "address",
          "name": "_customer",
          "type": "address"
        },
        {
          "internalType": "address",
          "name": "_restaurant",
          "type": "address"
        },
        {
          "internalType": "uint256",
          "name": "_discount",
          "type": "uint256"
        },
        {
          "internalType": "string",
          "name": "_metadataURI",
          "type": "string"
        }
      ],
      "name": "emitVoucher",
      "outputs": [],
      "stateMutability": "nonpayable",
      "type": "function"
    },
    {
      "inputs": [
        {
          "internalType": "uint256",
          "name": "idVaucher",
          "type": "uint256"
        }
      ],
      "name": "getVoucher",
      "outputs": [
        {
          "internalType": "address",
          "name": "customer",
          "type": "address"
        },
        {
          "internalType": "address",
          "name": "restaurant",
          "type": "address"
        },
        {
          "internalType": "uint256",
          "name": "discount",
          "type": "uint256"
        },
        {
          "internalType": "bool",
          "name": "available",
          "type": "bool"
        }
      ],
      "stateMutability": "view",
      "type": "function",
      "constant": true
    },
    {
      "inputs": [
        {
          "internalType": "uint256",
          "name": "idVaucher",
          "type": "uint256"
        }
      ],
      "name": "invalidateVoucher",
      "outputs": [],
      "stateMutability": "nonpayable",
      "type": "function"
    },
    {
      "inputs": [
        {
          "internalType": "uint256",
          "name": "voucherID",
          "type": "uint256"
        },
        {
          "internalType": "address",
          "name": "customer",
          "type": "address"
        },
        {
          "internalType": "address",
          "name": "restaurant",
          "type": "address"
        },
        {
          "internalType": "uint256",
          "name": "amount",
          "type": "uint256"
        }
      ],
      "name": "applyVoucher",
      "outputs": [
        {
          "internalType": "uint256",
          "name": "",
          "type": "uint256"
        }
      ],
      "stateMutability": "view",
      "type": "function",
      "constant": true
    }
  ],
  "bytecode": "0x60806040523480156200001157600080fd5b5060405162001904380380620019048339818101604052810190620000379190620000df565b80600260006101000a81548173ffffffffffffffffffffffffffffffffffffffff021916908373ffffffffffffffffffffffffffffffffffffffff16021790555033600560006101000a81548173ffffffffffffffffffffffffffffffffffffffff021916908373ffffffffffffffffffffffffffffffffffffffff16021790555060016000819055505062000159565b600081519050620000d9816200013f565b92915050565b600060208284031215620000f257600080fd5b60006200010284828501620000c8565b91505092915050565b600062000118826200011f565b9050919050565b600073ffffffffffffffffffffffffffffffffffffffff82169050919050565b6200014a816200010b565b81146200015657600080fd5b50565b61179b80620001696000396000f3fe608060405234801561001057600080fd5b50600436106100625760003560e01c80630cfa2fd81461006757806324b338741461009a578063362527fb146100ca5780633e97b43f146100e6578063dd4fd6371461011b578063f41b399814610137575b600080fd5b610081600480360381019061007c9190610f21565b610153565b60405161009194939291906112c6565b60405180910390f35b6100b460048036038101906100af9190610f4a565b6102b5565b6040516100c1919061140b565b60405180910390f35b6100e460048036038101906100df9190610e41565b610673565b005b61010060048036038101906100fb9190610f21565b610789565b60405161011296959493929190611426565b60405180910390f35b61013560048036038101906101309190610e7d565b61089a565b005b610151600480360381019061014c9190610f21565b610c35565b005b6000806000806001600086815260200190815260200160002060010160009054906101000a900473ffffffffffffffffffffffffffffffffffffffff1673ffffffffffffffffffffffffffffffffffffffff163373ffffffffffffffffffffffffffffffffffffffff16146101fd576040517f08c379a00000000000000000000000000000000000000000000000000000000081526004016101f4906113ab565b60405180910390fd5b6001600086815260200190815260200160002060010160009054906101000a900473ffffffffffffffffffffffffffffffffffffffff166001600087815260200190815260200160002060020160009054906101000a900473ffffffffffffffffffffffffffffffffffffffff1660016000888152602001908152602001600020600301546001600089815260200190815260200160002060040160009054906101000a900460ff1693509350935093509193509193565b6000600360009054906101000a900473ffffffffffffffffffffffffffffffffffffffff1673ffffffffffffffffffffffffffffffffffffffff163373ffffffffffffffffffffffffffffffffffffffff1614610347576040517f08c379a000000000000000000000000000000000000000000000000000000000815260040161033e906113ab565b60405180910390fd5b60008514156103585781905061066b565b6001600086815260200190815260200160002060010160009054906101000a900473ffffffffffffffffffffffffffffffffffffffff1673ffffffffffffffffffffffffffffffffffffffff168473ffffffffffffffffffffffffffffffffffffffff16146103fc576040517f08c379a00000000000000000000000000000000000000000000000000000000081526004016103f39061134b565b60405180910390fd5b6001600086815260200190815260200160002060020160009054906101000a900473ffffffffffffffffffffffffffffffffffffffff1673ffffffffffffffffffffffffffffffffffffffff168373ffffffffffffffffffffffffffffffffffffffff16146104a0576040517f08c379a00000000000000000000000000000000000000000000000000000000081526004016104979061138b565b60405180910390fd5b600260009054906101000a900473ffffffffffffffffffffffffffffffffffffffff1673ffffffffffffffffffffffffffffffffffffffff1663d1760e60846040518263ffffffff1660e01b81526004016104fb91906112ab565b60206040518083038186803b15801561051357600080fd5b505afa158015610527573d6000803e3d6000fd5b505050506040513d601f19601f8201168201806040525081019061054b9190610ef8565b61058a576040517f08c379a0000000000000000000000000000000000000000000000000000000008152600401610581906113cb565b60405180910390fd5b81600160008781526020019081526020016000206003015411156105e3576040517f08c379a00000000000000000000000000000000000000000000000000000000081526004016105da9061132b565b60405180910390fd5b6001600086815260200190815260200160002060040160009054906101000a900460ff16610646576040517f08c379a000000000000000000000000000000000000000000000000000000000815260040161063d906113eb565b60405180910390fd5b6001600086815260200190815260200160002060030154826106689190611549565b90505b949350505050565b600560009054906101000a900473ffffffffffffffffffffffffffffffffffffffff1673ffffffffffffffffffffffffffffffffffffffff163373ffffffffffffffffffffffffffffffffffffffff1614610703576040517f08c379a00000000000000000000000000000000000000000000000000000000081526004016106fa906113ab565b60405180910390fd5b81600360006101000a81548173ffffffffffffffffffffffffffffffffffffffff021916908373ffffffffffffffffffffffffffffffffffffffff16021790555080600460006101000a81548173ffffffffffffffffffffffffffffffffffffffff021916908373ffffffffffffffffffffffffffffffffffffffff1602179055505050565b60016020528060005260406000206000915090508060000154908060010160009054906101000a900473ffffffffffffffffffffffffffffffffffffffff16908060020160009054906101000a900473ffffffffffffffffffffffffffffffffffffffff16908060030154908060040160009054906101000a900460ff169080600501805461081790611607565b80601f016020809104026020016040519081016040528092919081815260200182805461084390611607565b80156108905780601f1061086557610100808354040283529160200191610890565b820191906000526020600020905b81548152906001019060200180831161087357829003601f168201915b5050505050905086565b600460009054906101000a900473ffffffffffffffffffffffffffffffffffffffff1673ffffffffffffffffffffffffffffffffffffffff163373ffffffffffffffffffffffffffffffffffffffff161461092a576040517f08c379a0000000000000000000000000000000000000000000000000000000008152600401610921906113ab565b60405180910390fd5b600260009054906101000a900473ffffffffffffffffffffffffffffffffffffffff1673ffffffffffffffffffffffffffffffffffffffff1663d1760e60846040518263ffffffff1660e01b815260040161098591906112ab565b60206040518083038186803b15801561099d57600080fd5b505afa1580156109b1573d6000803e3d6000fd5b505050506040513d601f19601f820116820180604052508101906109d59190610ef8565b610a14576040517f08c379a0000000000000000000000000000000000000000000000000000000008152600401610a0b9061130b565b60405180910390fd5b60008211610a57576040517f08c379a0000000000000000000000000000000000000000000000000000000008152600401610a4e9061136b565b60405180910390fd5b6040518060c0016040528060005481526020018573ffffffffffffffffffffffffffffffffffffffff1681526020018473ffffffffffffffffffffffffffffffffffffffff1681526020018381526020016001151581526020018281525060016000805481526020019081526020016000206000820151816000015560208201518160010160006101000a81548173ffffffffffffffffffffffffffffffffffffffff021916908373ffffffffffffffffffffffffffffffffffffffff16021790555060408201518160020160006101000a81548173ffffffffffffffffffffffffffffffffffffffff021916908373ffffffffffffffffffffffffffffffffffffffff1602179055506060820151816003015560808201518160040160006101000a81548160ff02191690831515021790555060a0820151816005019080519060200190610ba7929190610cf7565b509050508273ffffffffffffffffffffffffffffffffffffffff168473ffffffffffffffffffffffffffffffffffffffff166000547f0a3c7b2aa5e56177b2fc5705bbcc51cc9abf06c264bedc25fb54725858865df585600186604051610c109392919061148e565b60405180910390a4600080815480929190610c2a90611639565b919050555050505050565b600360009054906101000a900473ffffffffffffffffffffffffffffffffffffffff1673ffffffffffffffffffffffffffffffffffffffff163373ffffffffffffffffffffffffffffffffffffffff1614610cc5576040517f08c379a0000000000000000000000000000000000000000000000000000000008152600401610cbc906113ab565b60405180910390fd5b60006001600083815260200190815260200160002060040160006101000a81548160ff02191690831515021790555050565b828054610d0390611607565b90600052602060002090601f016020900481019282610d255760008555610d6c565b82601f10610d3e57805160ff1916838001178555610d6c565b82800160010185558215610d6c579182015b82811115610d6b578251825591602001919060010190610d50565b5b509050610d799190610d7d565b5090565b5b80821115610d96576000816000905550600101610d7e565b5090565b6000610dad610da8846114fd565b6114cc565b905082815260208101848484011115610dc557600080fd5b610dd08482856115c5565b509392505050565b600081359050610de781611720565b92915050565b600081519050610dfc81611737565b92915050565b600082601f830112610e1357600080fd5b8135610e23848260208601610d9a565b91505092915050565b600081359050610e3b8161174e565b92915050565b60008060408385031215610e5457600080fd5b6000610e6285828601610dd8565b9250506020610e7385828601610dd8565b9150509250929050565b60008060008060808587031215610e9357600080fd5b6000610ea187828801610dd8565b9450506020610eb287828801610dd8565b9350506040610ec387828801610e2c565b925050606085013567ffffffffffffffff811115610ee057600080fd5b610eec87828801610e02565b91505092959194509250565b600060208284031215610f0a57600080fd5b6000610f1884828501610ded565b91505092915050565b600060208284031215610f3357600080fd5b6000610f4184828501610e2c565b91505092915050565b60008060008060808587031215610f6057600080fd5b6000610f6e87828801610e2c565b9450506020610f7f87828801610dd8565b9350506040610f9087828801610dd8565b9250506060610fa187828801610e2c565b91505092959194509250565b610fb68161157d565b82525050565b610fc58161158f565b82525050565b6000610fd68261152d565b610fe08185611538565b9350610ff08185602086016115d4565b610ff98161170f565b840191505092915050565b6000611011601683611538565b91507f72657374617572616e74206e6f742070726573656e74000000000000000000006000830152602082019050919050565b6000611051601a83611538565b91507f596f752063616e6e6f74207573652074686520766f75636865720000000000006000830152602082019050919050565b6000611091602083611538565b91507f596f7520617265206e6f7420746865206f776e6572206f6620746865204e46546000830152602082019050919050565b60006110d1601383611538565b91507f69742063616e2774206265206170706c696564000000000000000000000000006000830152602082019050919050565b6000611111605083611538565b91507f5468652072657374617572616e74206173736f6369617465642077697468207460008301527f6865204e4654206973206e6f74207468652073616d6520617320746865206f6e60208301527f6520796f752061726520706179696e67000000000000000000000000000000006040830152606082019050919050565b600061119d600e83611538565b91507f6e6f7420617574686f72697a65640000000000000000000000000000000000006000830152602082019050919050565b60006111dd604983611538565b91507f5468652072657374617572616e74207265666572656e6365642062792074686560008301527f204e4654206973206e6f742070617274206f662074686520616666696c69617460208301527f65642073797374656d00000000000000000000000000000000000000000000006040830152606082019050919050565b6000611269601c83611538565b91507f7468697320766f756368657220697320616c72656164792075736564000000006000830152602082019050919050565b6112a5816115bb565b82525050565b60006020820190506112c06000830184610fad565b92915050565b60006080820190506112db6000830187610fad565b6112e86020830186610fad565b6112f5604083018561129c565b6113026060830184610fbc565b95945050505050565b6000602082019050818103600083015261132481611004565b9050919050565b6000602082019050818103600083015261134481611044565b9050919050565b6000602082019050818103600083015261136481611084565b9050919050565b60006020820190508181036000830152611384816110c4565b9050919050565b600060208201905081810360008301526113a481611104565b9050919050565b600060208201905081810360008301526113c481611190565b9050919050565b600060208201905081810360008301526113e4816111d0565b9050919050565b600060208201905081810360008301526114048161125c565b9050919050565b6000602082019050611420600083018461129c565b92915050565b600060c08201905061143b600083018961129c565b6114486020830188610fad565b6114556040830187610fad565b611462606083018661129c565b61146f6080830185610fbc565b81810360a08301526114818184610fcb565b9050979650505050505050565b60006060820190506114a3600083018661129c565b6114b06020830185610fbc565b81810360408301526114c28184610fcb565b9050949350505050565b6000604051905081810181811067ffffffffffffffff821117156114f3576114f26116e0565b5b8060405250919050565b600067ffffffffffffffff821115611518576115176116e0565b5b601f19601f8301169050602081019050919050565b600081519050919050565b600082825260208201905092915050565b6000611554826115bb565b915061155f836115bb565b92508282101561157257611571611682565b5b828203905092915050565b60006115888261159b565b9050919050565b60008115159050919050565b600073ffffffffffffffffffffffffffffffffffffffff82169050919050565b6000819050919050565b82818337600083830152505050565b60005b838110156115f25780820151818401526020810190506115d7565b83811115611601576000848401525b50505050565b6000600282049050600182168061161f57607f821691505b60208210811415611633576116326116b1565b5b50919050565b6000611644826115bb565b91507fffffffffffffffffffffffffffffffffffffffffffffffffffffffffffffffff82141561167757611676611682565b5b600182019050919050565b7f4e487b7100000000000000000000000000000000000000000000000000000000600052601160045260246000fd5b7f4e487b7100000000000000000000000000000000000000000000000000000000600052602260045260246000fd5b7f4e487b7100000000000000000000000000000000000000000000000000000000600052604160045260246000fd5b6000601f19601f8301169050919050565b6117298161157d565b811461173457600080fd5b50565b6117408161158f565b811461174b57600080fd5b50565b611757816115bb565b811461176257600080fd5b5056fea26469706673582212209a32658b197c0d9db2b943172582cacb4b4fff5d04808f193593fc005933991464736f6c63430008000033",
  "immutableReferences": {},
  "source": "// SPDX-License-Identifier: MIT\r\npragma solidity ^0.8.0;\r\n\r\nimport \"./ActorRegistry.sol\";\r\n\r\nstruct Voucher {\r\n    uint256 id;\r\n    address owner;\r\n    address restaurant;\r\n    uint256 discount;\r\n    bool available;\r\n    string metadataURI;\r\n}\r\n\r\ncontract VoucherManager {\r\n    uint256 private counter; //per l'id progressivo dei voucher\r\n    mapping(uint256 => Voucher) public vouchers;    //voucher associato all'id\r\n    ActorRegistry private actorRegistry;\r\n    address private tokenManager;\r\n    address private supportReviewManager;\r\n    address private owner;\r\n\r\n    event VoucherEmitted(uint256 indexed id, address indexed customer, address indexed restaurant, uint256 discount, bool available, string metadataURI);\r\n    \r\n    constructor(address _actorRegistry) {\r\n        actorRegistry = ActorRegistry(_actorRegistry);\r\n        owner = msg.sender;\r\n        counter = 1;\r\n    }\r\n\r\n    modifier onlyTokenManager {\r\n        require(msg.sender == tokenManager, \"not authorized\");\r\n        _;\r\n    }\r\n\r\n    modifier onlyOwner {\r\n        require(msg.sender == owner, \"not authorized\");\r\n        _;\r\n    }\r\n\r\n    function setAuthorizedAddress( address _tokenManager, address _supportReviewManager) external onlyOwner{\r\n        tokenManager = _tokenManager;\r\n        supportReviewManager = _supportReviewManager;\r\n    }\r\n\r\n    // Funzione interna per emettere un voucher\r\n    function emitVoucher(address _customer, address _restaurant, uint256 _discount, string memory _metadataURI) external \r\n    {\r\n        //check per verificare l'identit dell'utente\r\n        require(msg.sender == supportReviewManager, \"not authorized\");\r\n        require(actorRegistry.verifySeller(_restaurant), \"restaurant not present\");\r\n        require(_discount > 0, \"it can't be applied\");\r\n        vouchers[counter] = Voucher(counter, _customer, _restaurant, _discount, true, _metadataURI);\r\n\r\n        emit VoucherEmitted(counter, _customer, _restaurant, _discount, true, _metadataURI);\r\n        counter++;\r\n    }\r\n\r\n    //Funzione che restituisce il vaucher\r\n    function getVoucher(uint256 idVaucher) external view returns (address customer, address restaurant, uint256 discount, bool available){\r\n        require(msg.sender == vouchers[idVaucher].owner, \"not authorized\");\r\n        return (vouchers[idVaucher].owner, vouchers[idVaucher].restaurant, vouchers[idVaucher].discount, vouchers[idVaucher].available);\r\n    }\r\n\r\n    //Funzione per rendere il voucher non utilizzabile\r\n    function invalidateVoucher(uint256 idVaucher) external onlyTokenManager {\r\n        vouchers[idVaucher].available = false;\r\n    }\r\n\r\n    //Funzione per verificare se il voucher  applicabile\r\n    function applyVoucher(uint256 voucherID, address customer, address restaurant, uint256 amount) external view onlyTokenManager returns (uint256){\r\n        if(voucherID == 0)\r\n            return amount;\r\n        require(customer == vouchers[voucherID].owner, \"You are not the owner of the NFT\");\r\n        require(restaurant == vouchers[voucherID].restaurant, \"The restaurant associated with the NFT is not the same as the one you are paying\");\r\n        require(actorRegistry.verifySeller(restaurant), \"The restaurant referenced by the NFT is not part of the affiliated system\");\r\n        require(vouchers[voucherID].discount <= amount, \"You cannot use the voucher\");\r\n        require(vouchers[voucherID].available, \"this voucher is already used\");\r\n        return amount - vouchers[voucherID].discount;\r\n    }\r\n}\r\n\r\n\r\n\r\n",
  "sourcePath": "C:\\Users\\Utente\\Desktop\\Universit\\Blockchain\\Progetto\\ReviewChain\\Performance Tests\\contracts\\VoucherManager.sol",
  "compiler": {
    "name": "solc",
    "version": "0.8.0+commit.c7dfd78e.Emscripten.clang"
  },
  "schemaVersion": "3.4.16",
  "updatedAt": "2025-06-13T15:22:07.971Z",
  "networkType": "ethereum",
  "devdoc": {
    "kind": "dev",
    "methods": {},
    "version": 1
  },
  "userdoc": {
    "kind": "user",
    "methods": {},
    "version": 1
  }
}